:100000000C9458000C9462000C9462000C946200F2
:100010000C9462000C9462000C9462000C946200D8
:100020000C9462000C9462000C9462000C946200C8
:100030000C9462000C9462000C9462000C946200B8
:100040000C9462000C9462000C9462000C946200A8
:100050000C9462000C9462000C9462000C94620098
:100060000C9462000C9462000C9462000C94620088
:100070000C9462000C9462000C9462000C94620078
:100080000C9462000C9462000C9462000C94620068
:100090000C9462000C9462000C9462000C94620058
:1000A0000C9462000C9462000C946200F8940CC0F2
:1000B00011241FBECFEFDAE0DEBFCDBF0E94640087
:1000C0000C9480000C9400000E946B000E94710050
:1000D0000E947600FBCF80E8809361006E9A76984C
:1000E00008958EB190E489278EB9089502E314E64D
:1000F00028EC2A95F1F71A95D9F70A95C1F70895D2
:04010000F894FFCFA1
:020104000000F9
:00000001FF
